{
  "address": "0x320129ef3da55927b347cD3Bae8E731F88Ad4a5A",
  "abi": [
    {
      "inputs": [
        {
          "internalType": "string",
          "name": "baseURI",
          "type": "string"
        },
        {
          "internalType": "address",
          "name": "whitelistContract",
          "type": "address"
        }
      ],
      "stateMutability": "nonpayable",
      "type": "constructor"
    },
    {
      "inputs": [],
      "name": "ContractPaused",
      "type": "error"
    },
    {
      "inputs": [],
      "name": "InsufficientFunds",
      "type": "error"
    },
    {
      "inputs": [],
      "name": "MaxTokensReached",
      "type": "error"
    },
    {
      "inputs": [],
      "name": "NotWhitelisted",
      "type": "error"
    },
    {
      "inputs": [],
      "name": "PresaleNotRunning",
      "type": "error"
    },
    {
      "inputs": [],
      "name": "PresaleNotStarted",
      "type": "error"
    },
    {
      "inputs": [],
      "name": "PresaleRunning",
      "type": "error"
    },
    {
      "anonymous": false,
      "inputs": [
        {
          "indexed": true,
          "internalType": "address",
          "name": "owner",
          "type": "address"
        },
        {
          "indexed": true,
          "internalType": "address",
          "name": "approved",
          "type": "address"
        },
        {
          "indexed": true,
          "internalType": "uint256",
          "name": "tokenId",
          "type": "uint256"
        }
      ],
      "name": "Approval",
      "type": "event"
    },
    {
      "anonymous": false,
      "inputs": [
        {
          "indexed": true,
          "internalType": "address",
          "name": "owner",
          "type": "address"
        },
        {
          "indexed": true,
          "internalType": "address",
          "name": "operator",
          "type": "address"
        },
        {
          "indexed": false,
          "internalType": "bool",
          "name": "approved",
          "type": "bool"
        }
      ],
      "name": "ApprovalForAll",
      "type": "event"
    },
    {
      "anonymous": false,
      "inputs": [
        {
          "indexed": true,
          "internalType": "address",
          "name": "previousOwner",
          "type": "address"
        },
        {
          "indexed": true,
          "internalType": "address",
          "name": "newOwner",
          "type": "address"
        }
      ],
      "name": "OwnershipTransferred",
      "type": "event"
    },
    {
      "anonymous": false,
      "inputs": [
        {
          "indexed": true,
          "internalType": "address",
          "name": "from",
          "type": "address"
        },
        {
          "indexed": true,
          "internalType": "address",
          "name": "to",
          "type": "address"
        },
        {
          "indexed": true,
          "internalType": "uint256",
          "name": "tokenId",
          "type": "uint256"
        }
      ],
      "name": "Transfer",
      "type": "event"
    },
    {
      "stateMutability": "payable",
      "type": "fallback"
    },
    {
      "inputs": [],
      "name": "_baseTokenURI",
      "outputs": [
        {
          "internalType": "string",
          "name": "",
          "type": "string"
        }
      ],
      "stateMutability": "view",
      "type": "function"
    },
    {
      "inputs": [],
      "name": "_paused",
      "outputs": [
        {
          "internalType": "bool",
          "name": "",
          "type": "bool"
        }
      ],
      "stateMutability": "view",
      "type": "function"
    },
    {
      "inputs": [
        {
          "internalType": "address",
          "name": "to",
          "type": "address"
        },
        {
          "internalType": "uint256",
          "name": "tokenId",
          "type": "uint256"
        }
      ],
      "name": "approve",
      "outputs": [],
      "stateMutability": "nonpayable",
      "type": "function"
    },
    {
      "inputs": [
        {
          "internalType": "address",
          "name": "owner",
          "type": "address"
        }
      ],
      "name": "balanceOf",
      "outputs": [
        {
          "internalType": "uint256",
          "name": "",
          "type": "uint256"
        }
      ],
      "stateMutability": "view",
      "type": "function"
    },
    {
      "inputs": [
        {
          "internalType": "uint256",
          "name": "tokenId",
          "type": "uint256"
        }
      ],
      "name": "getApproved",
      "outputs": [
        {
          "internalType": "address",
          "name": "",
          "type": "address"
        }
      ],
      "stateMutability": "view",
      "type": "function"
    },
    {
      "inputs": [
        {
          "internalType": "address",
          "name": "owner",
          "type": "address"
        },
        {
          "internalType": "address",
          "name": "operator",
          "type": "address"
        }
      ],
      "name": "isApprovedForAll",
      "outputs": [
        {
          "internalType": "bool",
          "name": "",
          "type": "bool"
        }
      ],
      "stateMutability": "view",
      "type": "function"
    },
    {
      "inputs": [],
      "name": "mint",
      "outputs": [],
      "stateMutability": "payable",
      "type": "function"
    },
    {
      "inputs": [],
      "name": "name",
      "outputs": [
        {
          "internalType": "string",
          "name": "",
          "type": "string"
        }
      ],
      "stateMutability": "view",
      "type": "function"
    },
    {
      "inputs": [],
      "name": "owner",
      "outputs": [
        {
          "internalType": "address",
          "name": "",
          "type": "address"
        }
      ],
      "stateMutability": "view",
      "type": "function"
    },
    {
      "inputs": [
        {
          "internalType": "uint256",
          "name": "tokenId",
          "type": "uint256"
        }
      ],
      "name": "ownerOf",
      "outputs": [
        {
          "internalType": "address",
          "name": "",
          "type": "address"
        }
      ],
      "stateMutability": "view",
      "type": "function"
    },
    {
      "inputs": [],
      "name": "presaleEnded",
      "outputs": [
        {
          "internalType": "uint256",
          "name": "",
          "type": "uint256"
        }
      ],
      "stateMutability": "view",
      "type": "function"
    },
    {
      "inputs": [],
      "name": "presaleMint",
      "outputs": [],
      "stateMutability": "payable",
      "type": "function"
    },
    {
      "inputs": [],
      "name": "presaleStarted",
      "outputs": [
        {
          "internalType": "bool",
          "name": "",
          "type": "bool"
        }
      ],
      "stateMutability": "view",
      "type": "function"
    },
    {
      "inputs": [],
      "name": "renounceOwnership",
      "outputs": [],
      "stateMutability": "nonpayable",
      "type": "function"
    },
    {
      "inputs": [
        {
          "internalType": "address",
          "name": "from",
          "type": "address"
        },
        {
          "internalType": "address",
          "name": "to",
          "type": "address"
        },
        {
          "internalType": "uint256",
          "name": "tokenId",
          "type": "uint256"
        }
      ],
      "name": "safeTransferFrom",
      "outputs": [],
      "stateMutability": "nonpayable",
      "type": "function"
    },
    {
      "inputs": [
        {
          "internalType": "address",
          "name": "from",
          "type": "address"
        },
        {
          "internalType": "address",
          "name": "to",
          "type": "address"
        },
        {
          "internalType": "uint256",
          "name": "tokenId",
          "type": "uint256"
        },
        {
          "internalType": "bytes",
          "name": "data",
          "type": "bytes"
        }
      ],
      "name": "safeTransferFrom",
      "outputs": [],
      "stateMutability": "nonpayable",
      "type": "function"
    },
    {
      "inputs": [
        {
          "internalType": "address",
          "name": "operator",
          "type": "address"
        },
        {
          "internalType": "bool",
          "name": "approved",
          "type": "bool"
        }
      ],
      "name": "setApprovalForAll",
      "outputs": [],
      "stateMutability": "nonpayable",
      "type": "function"
    },
    {
      "inputs": [
        {
          "internalType": "bool",
          "name": "val",
          "type": "bool"
        }
      ],
      "name": "setPaused",
      "outputs": [],
      "stateMutability": "nonpayable",
      "type": "function"
    },
    {
      "inputs": [],
      "name": "startPresale",
      "outputs": [],
      "stateMutability": "nonpayable",
      "type": "function"
    },
    {
      "inputs": [
        {
          "internalType": "bytes4",
          "name": "interfaceId",
          "type": "bytes4"
        }
      ],
      "name": "supportsInterface",
      "outputs": [
        {
          "internalType": "bool",
          "name": "",
          "type": "bool"
        }
      ],
      "stateMutability": "view",
      "type": "function"
    },
    {
      "inputs": [],
      "name": "symbol",
      "outputs": [
        {
          "internalType": "string",
          "name": "",
          "type": "string"
        }
      ],
      "stateMutability": "view",
      "type": "function"
    },
    {
      "inputs": [
        {
          "internalType": "uint256",
          "name": "index",
          "type": "uint256"
        }
      ],
      "name": "tokenByIndex",
      "outputs": [
        {
          "internalType": "uint256",
          "name": "",
          "type": "uint256"
        }
      ],
      "stateMutability": "view",
      "type": "function"
    },
    {
      "inputs": [],
      "name": "tokenIds",
      "outputs": [
        {
          "internalType": "uint256",
          "name": "",
          "type": "uint256"
        }
      ],
      "stateMutability": "view",
      "type": "function"
    },
    {
      "inputs": [
        {
          "internalType": "address",
          "name": "owner",
          "type": "address"
        },
        {
          "internalType": "uint256",
          "name": "index",
          "type": "uint256"
        }
      ],
      "name": "tokenOfOwnerByIndex",
      "outputs": [
        {
          "internalType": "uint256",
          "name": "",
          "type": "uint256"
        }
      ],
      "stateMutability": "view",
      "type": "function"
    },
    {
      "inputs": [
        {
          "internalType": "uint256",
          "name": "tokenId",
          "type": "uint256"
        }
      ],
      "name": "tokenURI",
      "outputs": [
        {
          "internalType": "string",
          "name": "",
          "type": "string"
        }
      ],
      "stateMutability": "view",
      "type": "function"
    },
    {
      "inputs": [],
      "name": "totalSupply",
      "outputs": [
        {
          "internalType": "uint256",
          "name": "",
          "type": "uint256"
        }
      ],
      "stateMutability": "view",
      "type": "function"
    },
    {
      "inputs": [
        {
          "internalType": "address",
          "name": "from",
          "type": "address"
        },
        {
          "internalType": "address",
          "name": "to",
          "type": "address"
        },
        {
          "internalType": "uint256",
          "name": "tokenId",
          "type": "uint256"
        }
      ],
      "name": "transferFrom",
      "outputs": [],
      "stateMutability": "nonpayable",
      "type": "function"
    },
    {
      "inputs": [
        {
          "internalType": "address",
          "name": "newOwner",
          "type": "address"
        }
      ],
      "name": "transferOwnership",
      "outputs": [],
      "stateMutability": "nonpayable",
      "type": "function"
    },
    {
      "inputs": [],
      "name": "withdraw",
      "outputs": [],
      "stateMutability": "nonpayable",
      "type": "function"
    },
    {
      "stateMutability": "payable",
      "type": "receive"
    }
  ],
  "transactionHash": "0x061ff4aadc53f8eec2be1758f0e3b644c1086c1b25152f90b26100dfc79bbe0a",
  "args": [
    "https://go-api-rock.herokuapp.com/api/v1",
    "0x29c5a568fb1a40b402A7e6779162f030952732A2"
  ],
  "numDeployments": 1,
  "solcInputHash": "87a59923509005c0b699ff526a1bf9e6",
  "bytecode": "0x60806040523480156200001157600080fd5b5060405162003f9a38038062003f9a833981810160405281019062000037919062000360565b6040518060400160405280600b81526020017f43727970746f20446576730000000000000000000000000000000000000000008152506040518060400160405280600281526020017f43440000000000000000000000000000000000000000000000000000000000008152508160009080519060200190620000bb92919062000227565b508060019080519060200190620000d492919062000227565b505050620000f7620000eb6200015960201b60201c565b6200016160201b60201c565b81600c90805190602001906200010f92919062000227565b5080600b60006101000a81548173ffffffffffffffffffffffffffffffffffffffff021916908373ffffffffffffffffffffffffffffffffffffffff160217905550505062000578565b600033905090565b6000600a60009054906101000a900473ffffffffffffffffffffffffffffffffffffffff16905081600a60006101000a81548173ffffffffffffffffffffffffffffffffffffffff021916908373ffffffffffffffffffffffffffffffffffffffff1602179055508173ffffffffffffffffffffffffffffffffffffffff168173ffffffffffffffffffffffffffffffffffffffff167f8be0079c531659141344cd1fd0a4f28419497f9722a3daafe3b4186f6b6457e060405160405180910390a35050565b828054620002359062000483565b90600052602060002090601f016020900481019282620002595760008555620002a5565b82601f106200027457805160ff1916838001178555620002a5565b82800160010185558215620002a5579182015b82811115620002a457825182559160200191906001019062000287565b5b509050620002b49190620002b8565b5090565b5b80821115620002d3576000816000905550600101620002b9565b5090565b6000620002ee620002e884620003e3565b620003ba565b9050828152602081018484840111156200030757600080fd5b620003148482856200044d565b509392505050565b6000815190506200032d816200055e565b92915050565b600082601f8301126200034557600080fd5b815162000357848260208601620002d7565b91505092915050565b600080604083850312156200037457600080fd5b600083015167ffffffffffffffff8111156200038f57600080fd5b6200039d8582860162000333565b9250506020620003b0858286016200031c565b9150509250929050565b6000620003c6620003d9565b9050620003d48282620004b9565b919050565b6000604051905090565b600067ffffffffffffffff8211156200040157620004006200051e565b5b6200040c826200054d565b9050602081019050919050565b600062000426826200042d565b9050919050565b600073ffffffffffffffffffffffffffffffffffffffff82169050919050565b60005b838110156200046d57808201518184015260208101905062000450565b838111156200047d576000848401525b50505050565b600060028204905060018216806200049c57607f821691505b60208210811415620004b357620004b2620004ef565b5b50919050565b620004c4826200054d565b810181811067ffffffffffffffff82111715620004e657620004e56200051e565b5b80604052505050565b7f4e487b7100000000000000000000000000000000000000000000000000000000600052602260045260246000fd5b7f4e487b7100000000000000000000000000000000000000000000000000000000600052604160045260246000fd5b6000601f19601f8301169050919050565b620005698162000419565b81146200057557600080fd5b50565b613a1280620005886000396000f3fe6080604052600436106101c65760003560e01c80634f6ccce7116100f757806395d89b4111610095578063cfc86f7b11610064578063cfc86f7b146105f6578063e580b2b014610621578063e985e9c51461064c578063f2fde38b14610689576101cd565b806395d89b411461053c578063a22cb46514610567578063b88d4fde14610590578063c87b56dd146105b9576101cd565b806370a08231116100d157806370a0823114610492578063714cff56146104cf578063715018a6146104fa5780638da5cb5b14610511576101cd565b80634f6ccce71461040e57806359533d6c1461044b5780636352211e14610455576101cd565b806316c38b3c1161016457806323b872dd1161013e57806323b872dd146103685780632f745c59146103915780633ccfd60b146103ce57806342842e0e146103e5576101cd565b806316c38b3c146102e957806316c61ccc1461031257806318160ddd1461033d576101cd565b806306fdde03116101a057806306fdde031461024e578063081812fc14610279578063095ea7b3146102b65780631249c58b146102df576101cd565b806301ffc9a7146101cf57806304549d6f1461020c57806304c98b2b14610237576101cd565b366101cd57005b005b3480156101db57600080fd5b506101f660048036038101906101f19190612b1c565b6106b2565b6040516102039190612f5a565b60405180910390f35b34801561021857600080fd5b5061022161072c565b60405161022e9190612f5a565b60405180910390f35b34801561024357600080fd5b5061024c61073f565b005b34801561025a57600080fd5b50610263610778565b6040516102709190612f75565b60405180910390f35b34801561028557600080fd5b506102a0600480360381019061029b9190612b6e565b61080a565b6040516102ad9190612ef3565b60405180910390f35b3480156102c257600080fd5b506102dd60048036038101906102d89190612a8e565b610850565b005b6102e7610968565b005b3480156102f557600080fd5b50610310600480360381019061030b9190612aca565b610ad6565b005b34801561031e57600080fd5b50610327610afb565b6040516103349190612f5a565b60405180910390f35b34801561034957600080fd5b50610352610b0e565b60405161035f9190613197565b60405180910390f35b34801561037457600080fd5b5061038f600480360381019061038a9190612988565b610b1b565b005b34801561039d57600080fd5b506103b860048036038101906103b39190612a8e565b610b7b565b6040516103c59190613197565b60405180910390f35b3480156103da57600080fd5b506103e3610c20565b005b3480156103f157600080fd5b5061040c60048036038101906104079190612988565b610cea565b005b34801561041a57600080fd5b5061043560048036038101906104309190612b6e565b610d0a565b6040516104429190613197565b60405180910390f35b610453610da1565b005b34801561046157600080fd5b5061047c60048036038101906104779190612b6e565b610fc2565b6040516104899190612ef3565b60405180910390f35b34801561049e57600080fd5b506104b960048036038101906104b49190612923565b611074565b6040516104c69190613197565b60405180910390f35b3480156104db57600080fd5b506104e461112c565b6040516104f19190613197565b60405180910390f35b34801561050657600080fd5b5061050f611132565b005b34801561051d57600080fd5b50610526611146565b6040516105339190612ef3565b60405180910390f35b34801561054857600080fd5b50610551611170565b60405161055e9190612f75565b60405180910390f35b34801561057357600080fd5b5061058e60048036038101906105899190612a52565b611202565b005b34801561059c57600080fd5b506105b760048036038101906105b291906129d7565b611218565b005b3480156105c557600080fd5b506105e060048036038101906105db9190612b6e565b61127a565b6040516105ed9190612f75565b60405180910390f35b34801561060257600080fd5b5061060b6112e2565b6040516106189190612f75565b60405180910390f35b34801561062d57600080fd5b50610636611370565b6040516106439190613197565b60405180910390f35b34801561065857600080fd5b50610673600480360381019061066e919061294c565b611376565b6040516106809190612f5a565b60405180910390f35b34801561069557600080fd5b506106b060048036038101906106ab9190612923565b61140a565b005b60007f780e9d63000000000000000000000000000000000000000000000000000000007bffffffffffffffffffffffffffffffffffffffffffffffffffffffff1916827bffffffffffffffffffffffffffffffffffffffffffffffffffffffff1916148061072557506107248261148e565b5b9050919050565b600f60019054906101000a900460ff1681565b610747611570565b6001600f60016101000a81548160ff02191690831515021790555061012c426107709190613256565b600e81905550565b606060008054610787906133c7565b80601f01602080910402602001604051908101604052809291908181526020018280546107b3906133c7565b80156108005780601f106107d557610100808354040283529160200191610800565b820191906000526020600020905b8154815290600101906020018083116107e357829003601f168201915b5050505050905090565b6000610815826115ee565b6004600083815260200190815260200160002060009054906101000a900473ffffffffffffffffffffffffffffffffffffffff169050919050565b600061085b82610fc2565b90508073ffffffffffffffffffffffffffffffffffffffff168373ffffffffffffffffffffffffffffffffffffffff1614156108cc576040517f08c379a00000000000000000000000000000000000000000000000000000000081526004016108c390613137565b60405180910390fd5b8073ffffffffffffffffffffffffffffffffffffffff166108eb611639565b73ffffffffffffffffffffffffffffffffffffffff16148061091a575061091981610914611639565b611376565b5b610959576040517f08c379a0000000000000000000000000000000000000000000000000000000008152600401610950906130b7565b60405180910390fd5b6109638383611641565b505050565b600f60009054906101000a900460ff16156109af576040517fab35696f00000000000000000000000000000000000000000000000000000000815260040160405180910390fd5b600f60019054906101000a900460ff166109f5576040517f4e16195c00000000000000000000000000000000000000000000000000000000815260040160405180910390fd5b600e54421015610a31576040517f434a340600000000000000000000000000000000000000000000000000000000815260040160405180910390fd5b6014600d5410610a6d576040517f08451c3f00000000000000000000000000000000000000000000000000000000815260040160405180910390fd5b662386f26fc10000341015610aae576040517f356680b700000000000000000000000000000000000000000000000000000000815260040160405180910390fd5b6001600d6000828254610ac19190613256565b92505081905550610ad433600d546116fa565b565b610ade611570565b80600f60006101000a81548160ff02191690831515021790555050565b600f60009054906101000a900460ff1681565b6000600880549050905090565b610b2c610b26611639565b82611718565b610b6b576040517f08c379a0000000000000000000000000000000000000000000000000000000008152600401610b6290613177565b60405180910390fd5b610b768383836117ad565b505050565b6000610b8683611074565b8210610bc7576040517f08c379a0000000000000000000000000000000000000000000000000000000008152600401610bbe90612f97565b60405180910390fd5b600660008473ffffffffffffffffffffffffffffffffffffffff1673ffffffffffffffffffffffffffffffffffffffff168152602001908152602001600020600083815260200190815260200160002054905092915050565b610c28611570565b6000610c32611146565b9050600047905060008273ffffffffffffffffffffffffffffffffffffffff1682604051610c5f90612ede565b60006040518083038185875af1925050503d8060008114610c9c576040519150601f19603f3d011682016040523d82523d6000602084013e610ca1565b606091505b5050905080610ce5576040517f08c379a0000000000000000000000000000000000000000000000000000000008152600401610cdc90613037565b60405180910390fd5b505050565b610d0583838360405180602001604052806000815250611218565b505050565b6000610d14610b0e565b8210610d55576040517f08c379a0000000000000000000000000000000000000000000000000000000008152600401610d4c90613157565b60405180910390fd5b60088281548110610d8f577f4e487b7100000000000000000000000000000000000000000000000000000000600052603260045260246000fd5b90600052602060002001549050919050565b600f60009054906101000a900460ff1615610de8576040517fab35696f00000000000000000000000000000000000000000000000000000000815260040160405180910390fd5b600f60019054906101000a900460ff1680610e055750600e544210155b15610e3c576040517f49e7330f00000000000000000000000000000000000000000000000000000000815260040160405180910390fd5b600b60009054906101000a900473ffffffffffffffffffffffffffffffffffffffff1673ffffffffffffffffffffffffffffffffffffffff166306c933d8336040518263ffffffff1660e01b8152600401610e979190612ef3565b60206040518083038186803b158015610eaf57600080fd5b505afa158015610ec3573d6000803e3d6000fd5b505050506040513d601f19601f82011682018060405250810190610ee79190612af3565b610f1d576040517f584a793800000000000000000000000000000000000000000000000000000000815260040160405180910390fd5b6014600d5410610f59576040517f08451c3f00000000000000000000000000000000000000000000000000000000815260040160405180910390fd5b662386f26fc10000341015610f9a576040517f356680b700000000000000000000000000000000000000000000000000000000815260040160405180910390fd5b6001600d6000828254610fad9190613256565b92505081905550610fc033600d546116fa565b565b6000806002600084815260200190815260200160002060009054906101000a900473ffffffffffffffffffffffffffffffffffffffff169050600073ffffffffffffffffffffffffffffffffffffffff168173ffffffffffffffffffffffffffffffffffffffff16141561106b576040517f08c379a000000000000000000000000000000000000000000000000000000000815260040161106290613117565b60405180910390fd5b80915050919050565b60008073ffffffffffffffffffffffffffffffffffffffff168273ffffffffffffffffffffffffffffffffffffffff1614156110e5576040517f08c379a00000000000000000000000000000000000000000000000000000000081526004016110dc90613097565b60405180910390fd5b600360008373ffffffffffffffffffffffffffffffffffffffff1673ffffffffffffffffffffffffffffffffffffffff168152602001908152602001600020549050919050565b600d5481565b61113a611570565b6111446000611a14565b565b6000600a60009054906101000a900473ffffffffffffffffffffffffffffffffffffffff16905090565b60606001805461117f906133c7565b80601f01602080910402602001604051908101604052809291908181526020018280546111ab906133c7565b80156111f85780601f106111cd576101008083540402835291602001916111f8565b820191906000526020600020905b8154815290600101906020018083116111db57829003601f168201915b5050505050905090565b61121461120d611639565b8383611ada565b5050565b611229611223611639565b83611718565b611268576040517f08c379a000000000000000000000000000000000000000000000000000000000815260040161125f90613177565b60405180910390fd5b61127484848484611c47565b50505050565b6060611285826115ee565b600061128f611ca3565b905060008151116112af57604051806020016040528060008152506112da565b806112b984611d35565b6040516020016112ca929190612eba565b6040516020818303038152906040525b915050919050565b600c80546112ef906133c7565b80601f016020809104026020016040519081016040528092919081815260200182805461131b906133c7565b80156113685780601f1061133d57610100808354040283529160200191611368565b820191906000526020600020905b81548152906001019060200180831161134b57829003601f168201915b505050505081565b600e5481565b6000600560008473ffffffffffffffffffffffffffffffffffffffff1673ffffffffffffffffffffffffffffffffffffffff16815260200190815260200160002060008373ffffffffffffffffffffffffffffffffffffffff1673ffffffffffffffffffffffffffffffffffffffff16815260200190815260200160002060009054906101000a900460ff16905092915050565b611412611570565b600073ffffffffffffffffffffffffffffffffffffffff168173ffffffffffffffffffffffffffffffffffffffff161415611482576040517f08c379a000000000000000000000000000000000000000000000000000000000815260040161147990612fd7565b60405180910390fd5b61148b81611a14565b50565b60007f80ac58cd000000000000000000000000000000000000000000000000000000007bffffffffffffffffffffffffffffffffffffffffffffffffffffffff1916827bffffffffffffffffffffffffffffffffffffffffffffffffffffffff1916148061155957507f5b5e139f000000000000000000000000000000000000000000000000000000007bffffffffffffffffffffffffffffffffffffffffffffffffffffffff1916827bffffffffffffffffffffffffffffffffffffffffffffffffffffffff1916145b80611569575061156882611ee2565b5b9050919050565b611578611639565b73ffffffffffffffffffffffffffffffffffffffff16611596611146565b73ffffffffffffffffffffffffffffffffffffffff16146115ec576040517f08c379a00000000000000000000000000000000000000000000000000000000081526004016115e3906130f7565b60405180910390fd5b565b6115f781611f4c565b611636576040517f08c379a000000000000000000000000000000000000000000000000000000000815260040161162d90613117565b60405180910390fd5b50565b600033905090565b816004600083815260200190815260200160002060006101000a81548173ffffffffffffffffffffffffffffffffffffffff021916908373ffffffffffffffffffffffffffffffffffffffff160217905550808273ffffffffffffffffffffffffffffffffffffffff166116b483610fc2565b73ffffffffffffffffffffffffffffffffffffffff167f8c5be1e5ebec7d5bd14f71427d1e84f3dd0314c0f7b2291e5b200ac8c7c3b92560405160405180910390a45050565b611714828260405180602001604052806000815250611fb8565b5050565b60008061172483610fc2565b90508073ffffffffffffffffffffffffffffffffffffffff168473ffffffffffffffffffffffffffffffffffffffff16148061176657506117658185611376565b5b806117a457508373ffffffffffffffffffffffffffffffffffffffff1661178c8461080a565b73ffffffffffffffffffffffffffffffffffffffff16145b91505092915050565b8273ffffffffffffffffffffffffffffffffffffffff166117cd82610fc2565b73ffffffffffffffffffffffffffffffffffffffff1614611823576040517f08c379a000000000000000000000000000000000000000000000000000000000815260040161181a90612ff7565b60405180910390fd5b600073ffffffffffffffffffffffffffffffffffffffff168273ffffffffffffffffffffffffffffffffffffffff161415611893576040517f08c379a000000000000000000000000000000000000000000000000000000000815260040161188a90613057565b60405180910390fd5b61189e838383612013565b6118a9600082611641565b6001600360008573ffffffffffffffffffffffffffffffffffffffff1673ffffffffffffffffffffffffffffffffffffffff16815260200190815260200160002060008282546118f991906132dd565b925050819055506001600360008473ffffffffffffffffffffffffffffffffffffffff1673ffffffffffffffffffffffffffffffffffffffff16815260200190815260200160002060008282546119509190613256565b92505081905550816002600083815260200190815260200160002060006101000a81548173ffffffffffffffffffffffffffffffffffffffff021916908373ffffffffffffffffffffffffffffffffffffffff160217905550808273ffffffffffffffffffffffffffffffffffffffff168473ffffffffffffffffffffffffffffffffffffffff167fddf252ad1be2c89b69c2b068fc378daa952ba7f163c4a11628f55a4df523b3ef60405160405180910390a4611a0f838383612127565b505050565b6000600a60009054906101000a900473ffffffffffffffffffffffffffffffffffffffff16905081600a60006101000a81548173ffffffffffffffffffffffffffffffffffffffff021916908373ffffffffffffffffffffffffffffffffffffffff1602179055508173ffffffffffffffffffffffffffffffffffffffff168173ffffffffffffffffffffffffffffffffffffffff167f8be0079c531659141344cd1fd0a4f28419497f9722a3daafe3b4186f6b6457e060405160405180910390a35050565b8173ffffffffffffffffffffffffffffffffffffffff168373ffffffffffffffffffffffffffffffffffffffff161415611b49576040517f08c379a0000000000000000000000000000000000000000000000000000000008152600401611b4090613077565b60405180910390fd5b80600560008573ffffffffffffffffffffffffffffffffffffffff1673ffffffffffffffffffffffffffffffffffffffff16815260200190815260200160002060008473ffffffffffffffffffffffffffffffffffffffff1673ffffffffffffffffffffffffffffffffffffffff16815260200190815260200160002060006101000a81548160ff0219169083151502179055508173ffffffffffffffffffffffffffffffffffffffff168373ffffffffffffffffffffffffffffffffffffffff167f17307eab39ab6107e8899845ad3d59bd9653f200f220920489ca2b5937696c3183604051611c3a9190612f5a565b60405180910390a3505050565b611c528484846117ad565b611c5e8484848461212c565b611c9d576040517f08c379a0000000000000000000000000000000000000000000000000000000008152600401611c9490612fb7565b60405180910390fd5b50505050565b6060600c8054611cb2906133c7565b80601f0160208091040260200160405190810160405280929190818152602001828054611cde906133c7565b8015611d2b5780601f10611d0057610100808354040283529160200191611d2b565b820191906000526020600020905b815481529060010190602001808311611d0e57829003601f168201915b5050505050905090565b60606000821415611d7d576040518060400160405280600181526020017f30000000000000000000000000000000000000000000000000000000000000008152509050611edd565b600082905060005b60008214611daf578080611d989061342a565b915050600a82611da891906132ac565b9150611d85565b60008167ffffffffffffffff811115611df1577f4e487b7100000000000000000000000000000000000000000000000000000000600052604160045260246000fd5b6040519080825280601f01601f191660200182016040528015611e235781602001600182028036833780820191505090505b5090505b60008514611ed657600182611e3c91906132dd565b9150600a85611e4b9190613473565b6030611e579190613256565b60f81b818381518110611e93577f4e487b7100000000000000000000000000000000000000000000000000000000600052603260045260246000fd5b60200101907effffffffffffffffffffffffffffffffffffffffffffffffffffffffffffff1916908160001a905350600a85611ecf91906132ac565b9450611e27565b8093505050505b919050565b60007f01ffc9a7000000000000000000000000000000000000000000000000000000007bffffffffffffffffffffffffffffffffffffffffffffffffffffffff1916827bffffffffffffffffffffffffffffffffffffffffffffffffffffffff1916149050919050565b60008073ffffffffffffffffffffffffffffffffffffffff166002600084815260200190815260200160002060009054906101000a900473ffffffffffffffffffffffffffffffffffffffff1673ffffffffffffffffffffffffffffffffffffffff1614159050919050565b611fc283836122c3565b611fcf600084848461212c565b61200e576040517f08c379a000000000000000000000000000000000000000000000000000000000815260040161200590612fb7565b60405180910390fd5b505050565b61201e83838361249d565b600073ffffffffffffffffffffffffffffffffffffffff168373ffffffffffffffffffffffffffffffffffffffff1614156120615761205c816124a2565b6120a0565b8173ffffffffffffffffffffffffffffffffffffffff168373ffffffffffffffffffffffffffffffffffffffff161461209f5761209e83826124eb565b5b5b600073ffffffffffffffffffffffffffffffffffffffff168273ffffffffffffffffffffffffffffffffffffffff1614156120e3576120de81612658565b612122565b8273ffffffffffffffffffffffffffffffffffffffff168273ffffffffffffffffffffffffffffffffffffffff161461212157612120828261279b565b5b5b505050565b505050565b600061214d8473ffffffffffffffffffffffffffffffffffffffff1661281a565b156122b6578373ffffffffffffffffffffffffffffffffffffffff1663150b7a02612176611639565b8786866040518563ffffffff1660e01b81526004016121989493929190612f0e565b602060405180830381600087803b1580156121b257600080fd5b505af19250505080156121e357506040513d601f19601f820116820180604052508101906121e09190612b45565b60015b612266573d8060008114612213576040519150601f19603f3d011682016040523d82523d6000602084013e612218565b606091505b5060008151141561225e576040517f08c379a000000000000000000000000000000000000000000000000000000000815260040161225590612fb7565b60405180910390fd5b805181602001fd5b63150b7a0260e01b7bffffffffffffffffffffffffffffffffffffffffffffffffffffffff1916817bffffffffffffffffffffffffffffffffffffffffffffffffffffffff1916149150506122bb565b600190505b949350505050565b600073ffffffffffffffffffffffffffffffffffffffff168273ffffffffffffffffffffffffffffffffffffffff161415612333576040517f08c379a000000000000000000000000000000000000000000000000000000000815260040161232a906130d7565b60405180910390fd5b61233c81611f4c565b1561237c576040517f08c379a000000000000000000000000000000000000000000000000000000000815260040161237390613017565b60405180910390fd5b61238860008383612013565b6001600360008473ffffffffffffffffffffffffffffffffffffffff1673ffffffffffffffffffffffffffffffffffffffff16815260200190815260200160002060008282546123d89190613256565b92505081905550816002600083815260200190815260200160002060006101000a81548173ffffffffffffffffffffffffffffffffffffffff021916908373ffffffffffffffffffffffffffffffffffffffff160217905550808273ffffffffffffffffffffffffffffffffffffffff16600073ffffffffffffffffffffffffffffffffffffffff167fddf252ad1be2c89b69c2b068fc378daa952ba7f163c4a11628f55a4df523b3ef60405160405180910390a461249960008383612127565b5050565b505050565b6008805490506009600083815260200190815260200160002081905550600881908060018154018082558091505060019003906000526020600020016000909190919091505550565b600060016124f884611074565b61250291906132dd565b90506000600760008481526020019081526020016000205490508181146125e7576000600660008673ffffffffffffffffffffffffffffffffffffffff1673ffffffffffffffffffffffffffffffffffffffff168152602001908152602001600020600084815260200190815260200160002054905080600660008773ffffffffffffffffffffffffffffffffffffffff1673ffffffffffffffffffffffffffffffffffffffff168152602001908152602001600020600084815260200190815260200160002081905550816007600083815260200190815260200160002081905550505b6007600084815260200190815260200160002060009055600660008573ffffffffffffffffffffffffffffffffffffffff1673ffffffffffffffffffffffffffffffffffffffff16815260200190815260200160002060008381526020019081526020016000206000905550505050565b6000600160088054905061266c91906132dd565b90506000600960008481526020019081526020016000205490506000600883815481106126c2577f4e487b7100000000000000000000000000000000000000000000000000000000600052603260045260246000fd5b90600052602060002001549050806008838154811061270a577f4e487b7100000000000000000000000000000000000000000000000000000000600052603260045260246000fd5b90600052602060002001819055508160096000838152602001908152602001600020819055506009600085815260200190815260200160002060009055600880548061277f577f4e487b7100000000000000000000000000000000000000000000000000000000600052603160045260246000fd5b6001900381819060005260206000200160009055905550505050565b60006127a683611074565b905081600660008573ffffffffffffffffffffffffffffffffffffffff1673ffffffffffffffffffffffffffffffffffffffff168152602001908152602001600020600083815260200190815260200160002081905550806007600084815260200190815260200160002081905550505050565b6000808273ffffffffffffffffffffffffffffffffffffffff163b119050919050565b600061285061284b846131d7565b6131b2565b90508281526020810184848401111561286857600080fd5b612873848285613385565b509392505050565b60008135905061288a81613980565b92915050565b60008135905061289f81613997565b92915050565b6000815190506128b481613997565b92915050565b6000813590506128c9816139ae565b92915050565b6000815190506128de816139ae565b92915050565b600082601f8301126128f557600080fd5b813561290584826020860161283d565b91505092915050565b60008135905061291d816139c5565b92915050565b60006020828403121561293557600080fd5b60006129438482850161287b565b91505092915050565b6000806040838503121561295f57600080fd5b600061296d8582860161287b565b925050602061297e8582860161287b565b9150509250929050565b60008060006060848603121561299d57600080fd5b60006129ab8682870161287b565b93505060206129bc8682870161287b565b92505060406129cd8682870161290e565b9150509250925092565b600080600080608085870312156129ed57600080fd5b60006129fb8782880161287b565b9450506020612a0c8782880161287b565b9350506040612a1d8782880161290e565b925050606085013567ffffffffffffffff811115612a3a57600080fd5b612a46878288016128e4565b91505092959194509250565b60008060408385031215612a6557600080fd5b6000612a738582860161287b565b9250506020612a8485828601612890565b9150509250929050565b60008060408385031215612aa157600080fd5b6000612aaf8582860161287b565b9250506020612ac08582860161290e565b9150509250929050565b600060208284031215612adc57600080fd5b6000612aea84828501612890565b91505092915050565b600060208284031215612b0557600080fd5b6000612b13848285016128a5565b91505092915050565b600060208284031215612b2e57600080fd5b6000612b3c848285016128ba565b91505092915050565b600060208284031215612b5757600080fd5b6000612b65848285016128cf565b91505092915050565b600060208284031215612b8057600080fd5b6000612b8e8482850161290e565b91505092915050565b612ba081613311565b82525050565b612baf81613323565b82525050565b6000612bc082613208565b612bca818561321e565b9350612bda818560208601613394565b612be381613560565b840191505092915050565b6000612bf982613213565b612c03818561323a565b9350612c13818560208601613394565b612c1c81613560565b840191505092915050565b6000612c3282613213565b612c3c818561324b565b9350612c4c818560208601613394565b80840191505092915050565b6000612c65602b8361323a565b9150612c7082613571565b604082019050919050565b6000612c8860328361323a565b9150612c93826135c0565b604082019050919050565b6000612cab60268361323a565b9150612cb68261360f565b604082019050919050565b6000612cce60258361323a565b9150612cd98261365e565b604082019050919050565b6000612cf1601c8361323a565b9150612cfc826136ad565b602082019050919050565b6000612d1460148361323a565b9150612d1f826136d6565b602082019050919050565b6000612d3760248361323a565b9150612d42826136ff565b604082019050919050565b6000612d5a60198361323a565b9150612d658261374e565b602082019050919050565b6000612d7d60298361323a565b9150612d8882613777565b604082019050919050565b6000612da0603e8361323a565b9150612dab826137c6565b604082019050919050565b6000612dc360208361323a565b9150612dce82613815565b602082019050919050565b6000612de660208361323a565b9150612df18261383e565b602082019050919050565b6000612e0960188361323a565b9150612e1482613867565b602082019050919050565b6000612e2c60218361323a565b9150612e3782613890565b604082019050919050565b6000612e4f60008361322f565b9150612e5a826138df565b600082019050919050565b6000612e72602c8361323a565b9150612e7d826138e2565b604082019050919050565b6000612e95602e8361323a565b9150612ea082613931565b604082019050919050565b612eb48161337b565b82525050565b6000612ec68285612c27565b9150612ed28284612c27565b91508190509392505050565b6000612ee982612e42565b9150819050919050565b6000602082019050612f086000830184612b97565b92915050565b6000608082019050612f236000830187612b97565b612f306020830186612b97565b612f3d6040830185612eab565b8181036060830152612f4f8184612bb5565b905095945050505050565b6000602082019050612f6f6000830184612ba6565b92915050565b60006020820190508181036000830152612f8f8184612bee565b905092915050565b60006020820190508181036000830152612fb081612c58565b9050919050565b60006020820190508181036000830152612fd081612c7b565b9050919050565b60006020820190508181036000830152612ff081612c9e565b9050919050565b6000602082019050818103600083015261301081612cc1565b9050919050565b6000602082019050818103600083015261303081612ce4565b9050919050565b6000602082019050818103600083015261305081612d07565b9050919050565b6000602082019050818103600083015261307081612d2a565b9050919050565b6000602082019050818103600083015261309081612d4d565b9050919050565b600060208201905081810360008301526130b081612d70565b9050919050565b600060208201905081810360008301526130d081612d93565b9050919050565b600060208201905081810360008301526130f081612db6565b9050919050565b6000602082019050818103600083015261311081612dd9565b9050919050565b6000602082019050818103600083015261313081612dfc565b9050919050565b6000602082019050818103600083015261315081612e1f565b9050919050565b6000602082019050818103600083015261317081612e65565b9050919050565b6000602082019050818103600083015261319081612e88565b9050919050565b60006020820190506131ac6000830184612eab565b92915050565b60006131bc6131cd565b90506131c882826133f9565b919050565b6000604051905090565b600067ffffffffffffffff8211156131f2576131f1613531565b5b6131fb82613560565b9050602081019050919050565b600081519050919050565b600081519050919050565b600082825260208201905092915050565b600081905092915050565b600082825260208201905092915050565b600081905092915050565b60006132618261337b565b915061326c8361337b565b9250827fffffffffffffffffffffffffffffffffffffffffffffffffffffffffffffffff038211156132a1576132a06134a4565b5b828201905092915050565b60006132b78261337b565b91506132c28361337b565b9250826132d2576132d16134d3565b5b828204905092915050565b60006132e88261337b565b91506132f38361337b565b925082821015613306576133056134a4565b5b828203905092915050565b600061331c8261335b565b9050919050565b60008115159050919050565b60007fffffffff0000000000000000000000000000000000000000000000000000000082169050919050565b600073ffffffffffffffffffffffffffffffffffffffff82169050919050565b6000819050919050565b82818337600083830152505050565b60005b838110156133b2578082015181840152602081019050613397565b838111156133c1576000848401525b50505050565b600060028204905060018216806133df57607f821691505b602082108114156133f3576133f2613502565b5b50919050565b61340282613560565b810181811067ffffffffffffffff8211171561342157613420613531565b5b80604052505050565b60006134358261337b565b91507fffffffffffffffffffffffffffffffffffffffffffffffffffffffffffffffff821415613468576134676134a4565b5b600182019050919050565b600061347e8261337b565b91506134898361337b565b925082613499576134986134d3565b5b828206905092915050565b7f4e487b7100000000000000000000000000000000000000000000000000000000600052601160045260246000fd5b7f4e487b7100000000000000000000000000000000000000000000000000000000600052601260045260246000fd5b7f4e487b7100000000000000000000000000000000000000000000000000000000600052602260045260246000fd5b7f4e487b7100000000000000000000000000000000000000000000000000000000600052604160045260246000fd5b6000601f19601f8301169050919050565b7f455243373231456e756d657261626c653a206f776e657220696e646578206f7560008201527f74206f6620626f756e6473000000000000000000000000000000000000000000602082015250565b7f4552433732313a207472616e7366657220746f206e6f6e20455243373231526560008201527f63656976657220696d706c656d656e7465720000000000000000000000000000602082015250565b7f4f776e61626c653a206e6577206f776e657220697320746865207a65726f206160008201527f6464726573730000000000000000000000000000000000000000000000000000602082015250565b7f4552433732313a207472616e736665722066726f6d20696e636f72726563742060008201527f6f776e6572000000000000000000000000000000000000000000000000000000602082015250565b7f4552433732313a20746f6b656e20616c7265616479206d696e74656400000000600082015250565b7f4661696c656420746f2073656e64204574686572000000000000000000000000600082015250565b7f4552433732313a207472616e7366657220746f20746865207a65726f2061646460008201527f7265737300000000000000000000000000000000000000000000000000000000602082015250565b7f4552433732313a20617070726f766520746f2063616c6c657200000000000000600082015250565b7f4552433732313a2061646472657373207a65726f206973206e6f74206120766160008201527f6c6964206f776e65720000000000000000000000000000000000000000000000602082015250565b7f4552433732313a20617070726f76652063616c6c6572206973206e6f7420746f60008201527f6b656e206f776e6572206e6f7220617070726f76656420666f7220616c6c0000602082015250565b7f4552433732313a206d696e7420746f20746865207a65726f2061646472657373600082015250565b7f4f776e61626c653a2063616c6c6572206973206e6f7420746865206f776e6572600082015250565b7f4552433732313a20696e76616c696420746f6b656e2049440000000000000000600082015250565b7f4552433732313a20617070726f76616c20746f2063757272656e74206f776e6560008201527f7200000000000000000000000000000000000000000000000000000000000000602082015250565b50565b7f455243373231456e756d657261626c653a20676c6f62616c20696e646578206f60008201527f7574206f6620626f756e64730000000000000000000000000000000000000000602082015250565b7f4552433732313a2063616c6c6572206973206e6f7420746f6b656e206f776e6560008201527f72206e6f7220617070726f766564000000000000000000000000000000000000602082015250565b61398981613311565b811461399457600080fd5b50565b6139a081613323565b81146139ab57600080fd5b50565b6139b78161332f565b81146139c257600080fd5b50565b6139ce8161337b565b81146139d957600080fd5b5056fea26469706673582212201c1f934899c51c0c15b39f2a0c63842c1029129395c351005bdef81f6601f5cc64736f6c63430008040033",
  "devdoc": {
    "kind": "dev",
    "methods": {
      "approve(address,uint256)": {
        "details": "See {IERC721-approve}."
      },
      "balanceOf(address)": {
        "details": "See {IERC721-balanceOf}."
      },
      "getApproved(uint256)": {
        "details": "See {IERC721-getApproved}."
      },
      "isApprovedForAll(address,address)": {
        "details": "See {IERC721-isApprovedForAll}."
      },
      "name()": {
        "details": "See {IERC721Metadata-name}."
      },
      "owner()": {
        "details": "Returns the address of the current owner."
      },
      "ownerOf(uint256)": {
        "details": "See {IERC721-ownerOf}."
      },
      "renounceOwnership()": {
        "details": "Leaves the contract without owner. It will not be possible to call `onlyOwner` functions anymore. Can only be called by the current owner. NOTE: Renouncing ownership will leave the contract without an owner, thereby removing any functionality that is only available to the owner."
      },
      "safeTransferFrom(address,address,uint256)": {
        "details": "See {IERC721-safeTransferFrom}."
      },
      "safeTransferFrom(address,address,uint256,bytes)": {
        "details": "See {IERC721-safeTransferFrom}."
      },
      "setApprovalForAll(address,bool)": {
        "details": "See {IERC721-setApprovalForAll}."
      },
      "supportsInterface(bytes4)": {
        "details": "See {IERC165-supportsInterface}."
      },
      "symbol()": {
        "details": "See {IERC721Metadata-symbol}."
      },
      "tokenByIndex(uint256)": {
        "details": "See {IERC721Enumerable-tokenByIndex}."
      },
      "tokenOfOwnerByIndex(address,uint256)": {
        "details": "See {IERC721Enumerable-tokenOfOwnerByIndex}."
      },
      "tokenURI(uint256)": {
        "details": "See {IERC721Metadata-tokenURI}."
      },
      "totalSupply()": {
        "details": "See {IERC721Enumerable-totalSupply}."
      },
      "transferFrom(address,address,uint256)": {
        "details": "See {IERC721-transferFrom}."
      },
      "transferOwnership(address)": {
        "details": "Transfers ownership of the contract to a new account (`newOwner`). Can only be called by the current owner."
      }
    },
    "version": 1
  },
  "userdoc": {
    "kind": "user",
    "methods": {},
    "version": 1
  },
  "storageLayout": {
    "storage": [
      {
        "astId": 138,
        "contract": "contracts/CryptoDevs.sol:CryptoDevs",
        "label": "_name",
        "offset": 0,
        "slot": "0",
        "type": "t_string_storage"
      },
      {
        "astId": 140,
        "contract": "contracts/CryptoDevs.sol:CryptoDevs",
        "label": "_symbol",
        "offset": 0,
        "slot": "1",
        "type": "t_string_storage"
      },
      {
        "astId": 144,
        "contract": "contracts/CryptoDevs.sol:CryptoDevs",
        "label": "_owners",
        "offset": 0,
        "slot": "2",
        "type": "t_mapping(t_uint256,t_address)"
      },
      {
        "astId": 148,
        "contract": "contracts/CryptoDevs.sol:CryptoDevs",
        "label": "_balances",
        "offset": 0,
        "slot": "3",
        "type": "t_mapping(t_address,t_uint256)"
      },
      {
        "astId": 152,
        "contract": "contracts/CryptoDevs.sol:CryptoDevs",
        "label": "_tokenApprovals",
        "offset": 0,
        "slot": "4",
        "type": "t_mapping(t_uint256,t_address)"
      },
      {
        "astId": 158,
        "contract": "contracts/CryptoDevs.sol:CryptoDevs",
        "label": "_operatorApprovals",
        "offset": 0,
        "slot": "5",
        "type": "t_mapping(t_address,t_mapping(t_address,t_bool))"
      },
      {
        "astId": 1128,
        "contract": "contracts/CryptoDevs.sol:CryptoDevs",
        "label": "_ownedTokens",
        "offset": 0,
        "slot": "6",
        "type": "t_mapping(t_address,t_mapping(t_uint256,t_uint256))"
      },
      {
        "astId": 1132,
        "contract": "contracts/CryptoDevs.sol:CryptoDevs",
        "label": "_ownedTokensIndex",
        "offset": 0,
        "slot": "7",
        "type": "t_mapping(t_uint256,t_uint256)"
      },
      {
        "astId": 1135,
        "contract": "contracts/CryptoDevs.sol:CryptoDevs",
        "label": "_allTokens",
        "offset": 0,
        "slot": "8",
        "type": "t_array(t_uint256)dyn_storage"
      },
      {
        "astId": 1139,
        "contract": "contracts/CryptoDevs.sol:CryptoDevs",
        "label": "_allTokensIndex",
        "offset": 0,
        "slot": "9",
        "type": "t_mapping(t_uint256,t_uint256)"
      },
      {
        "astId": 7,
        "contract": "contracts/CryptoDevs.sol:CryptoDevs",
        "label": "_owner",
        "offset": 0,
        "slot": "10",
        "type": "t_address"
      },
      {
        "astId": 2120,
        "contract": "contracts/CryptoDevs.sol:CryptoDevs",
        "label": "whitelist",
        "offset": 0,
        "slot": "11",
        "type": "t_contract(IWhitelist)2356"
      },
      {
        "astId": 2122,
        "contract": "contracts/CryptoDevs.sol:CryptoDevs",
        "label": "_baseTokenURI",
        "offset": 0,
        "slot": "12",
        "type": "t_string_storage"
      },
      {
        "astId": 2124,
        "contract": "contracts/CryptoDevs.sol:CryptoDevs",
        "label": "tokenIds",
        "offset": 0,
        "slot": "13",
        "type": "t_uint256"
      },
      {
        "astId": 2126,
        "contract": "contracts/CryptoDevs.sol:CryptoDevs",
        "label": "presaleEnded",
        "offset": 0,
        "slot": "14",
        "type": "t_uint256"
      },
      {
        "astId": 2128,
        "contract": "contracts/CryptoDevs.sol:CryptoDevs",
        "label": "_paused",
        "offset": 0,
        "slot": "15",
        "type": "t_bool"
      },
      {
        "astId": 2130,
        "contract": "contracts/CryptoDevs.sol:CryptoDevs",
        "label": "presaleStarted",
        "offset": 1,
        "slot": "15",
        "type": "t_bool"
      }
    ],
    "types": {
      "t_address": {
        "encoding": "inplace",
        "label": "address",
        "numberOfBytes": "20"
      },
      "t_array(t_uint256)dyn_storage": {
        "base": "t_uint256",
        "encoding": "dynamic_array",
        "label": "uint256[]",
        "numberOfBytes": "32"
      },
      "t_bool": {
        "encoding": "inplace",
        "label": "bool",
        "numberOfBytes": "1"
      },
      "t_contract(IWhitelist)2356": {
        "encoding": "inplace",
        "label": "contract IWhitelist",
        "numberOfBytes": "20"
      },
      "t_mapping(t_address,t_bool)": {
        "encoding": "mapping",
        "key": "t_address",
        "label": "mapping(address => bool)",
        "numberOfBytes": "32",
        "value": "t_bool"
      },
      "t_mapping(t_address,t_mapping(t_address,t_bool))": {
        "encoding": "mapping",
        "key": "t_address",
        "label": "mapping(address => mapping(address => bool))",
        "numberOfBytes": "32",
        "value": "t_mapping(t_address,t_bool)"
      },
      "t_mapping(t_address,t_mapping(t_uint256,t_uint256))": {
        "encoding": "mapping",
        "key": "t_address",
        "label": "mapping(address => mapping(uint256 => uint256))",
        "numberOfBytes": "32",
        "value": "t_mapping(t_uint256,t_uint256)"
      },
      "t_mapping(t_address,t_uint256)": {
        "encoding": "mapping",
        "key": "t_address",
        "label": "mapping(address => uint256)",
        "numberOfBytes": "32",
        "value": "t_uint256"
      },
      "t_mapping(t_uint256,t_address)": {
        "encoding": "mapping",
        "key": "t_uint256",
        "label": "mapping(uint256 => address)",
        "numberOfBytes": "32",
        "value": "t_address"
      },
      "t_mapping(t_uint256,t_uint256)": {
        "encoding": "mapping",
        "key": "t_uint256",
        "label": "mapping(uint256 => uint256)",
        "numberOfBytes": "32",
        "value": "t_uint256"
      },
      "t_string_storage": {
        "encoding": "bytes",
        "label": "string",
        "numberOfBytes": "32"
      },
      "t_uint256": {
        "encoding": "inplace",
        "label": "uint256",
        "numberOfBytes": "32"
      }
    }
  }
}