{
  "address": "0x29c5a568fb1a40b402A7e6779162f030952732A2",
  "abi": [
    {
      "inputs": [
        {
          "internalType": "uint8",
          "name": "_maxWhitelistedAddresses",
          "type": "uint8"
        }
      ],
      "stateMutability": "nonpayable",
      "type": "constructor"
    },
    {
      "inputs": [],
      "name": "AlreadyWhitelisted",
      "type": "error"
    },
    {
      "inputs": [],
      "name": "MaxAddressesWhitelisted",
      "type": "error"
    },
    {
      "anonymous": false,
      "inputs": [
        {
          "indexed": true,
          "internalType": "address",
          "name": "whitelistedAddress",
          "type": "address"
        }
      ],
      "name": "AddressWhitelisted",
      "type": "event"
    },
    {
      "inputs": [],
      "name": "addAddressToWhitelist",
      "outputs": [],
      "stateMutability": "nonpayable",
      "type": "function"
    },
    {
      "inputs": [],
      "name": "numAddressesWhitelisted",
      "outputs": [
        {
          "internalType": "uint8",
          "name": "",
          "type": "uint8"
        }
      ],
      "stateMutability": "view",
      "type": "function"
    },
    {
      "inputs": [
        {
          "internalType": "address",
          "name": "",
          "type": "address"
        }
      ],
      "name": "whitelistedAddresses",
      "outputs": [
        {
          "internalType": "bool",
          "name": "",
          "type": "bool"
        }
      ],
      "stateMutability": "view",
      "type": "function"
    }
  ],
  "transactionHash": "0xf207309dfd6c7774ab3bf65b49d40783975800b21aaaf75707d33f7ea0e23f54",
  "args": [
    10
  ],
  "numDeployments": 2,
  "solcInputHash": "8363de6d4997ce43225a138c50197e22",
  "bytecode": "0x60a060405234801561001057600080fd5b506040516104ed3803806104ed8339818101604052810190610032919061005e565b8060ff1660808160ff1660f81b81525050506100ab565b60008151905061005881610094565b92915050565b60006020828403121561007057600080fd5b600061007e84828501610049565b91505092915050565b600060ff82169050919050565b61009d81610087565b81146100a857600080fd5b50565b60805160f81c6104246100c9600039600061015601526104246000f3fe608060405234801561001057600080fd5b50600436106100415760003560e01c806306c933d8146100465780634011d7cd146100765780638e7314d914610094575b600080fd5b610060600480360381019061005b91906102a9565b61009e565b60405161006d91906102f0565b60405180910390f35b61007e6100be565b60405161008b919061030b565b60405180910390f35b61009c6100d1565b005b60006020528060005260406000206000915054906101000a900460ff1681565b600160009054906101000a900460ff1681565b6000803373ffffffffffffffffffffffffffffffffffffffff1673ffffffffffffffffffffffffffffffffffffffff16815260200190815260200160002060009054906101000a900460ff1615610154576040517fb73e95e100000000000000000000000000000000000000000000000000000000815260040160405180910390fd5b7f000000000000000000000000000000000000000000000000000000000000000060ff16600160009054906101000a900460ff1660ff16106101c2576040517fe2e5fcfe00000000000000000000000000000000000000000000000000000000815260040160405180910390fd5b60016000803373ffffffffffffffffffffffffffffffffffffffff1673ffffffffffffffffffffffffffffffffffffffff16815260200190815260200160002060006101000a81548160ff02191690831515021790555060018060008282829054906101000a900460ff166102379190610326565b92506101000a81548160ff021916908360ff1602179055503373ffffffffffffffffffffffffffffffffffffffff167f4f783c179409b4127238bc9c990bc99b9a651666a0d20b51d6c42849eb88466d60405160405180910390a2565b6000813590506102a3816103d7565b92915050565b6000602082840312156102bb57600080fd5b60006102c984828501610294565b91505092915050565b6102db8161036f565b82525050565b6102ea8161039b565b82525050565b600060208201905061030560008301846102d2565b92915050565b600060208201905061032060008301846102e1565b92915050565b60006103318261039b565b915061033c8361039b565b92508260ff03821115610352576103516103a8565b5b828201905092915050565b60006103688261037b565b9050919050565b60008115159050919050565b600073ffffffffffffffffffffffffffffffffffffffff82169050919050565b600060ff82169050919050565b7f4e487b7100000000000000000000000000000000000000000000000000000000600052601160045260246000fd5b6103e08161035d565b81146103eb57600080fd5b5056fea264697066735822122040178f8ad75b194002255648171ea5f4968fde93dac87b8e03f1614afe9fe07064736f6c63430008040033",
  "devdoc": {
    "kind": "dev",
    "methods": {},
    "version": 1
  },
  "userdoc": {
    "kind": "user",
    "methods": {},
    "version": 1
  },
  "storageLayout": {
    "storage": [
      {
        "astId": 2337,
        "contract": "contracts/Whitelist.sol:Whitelist",
        "label": "whitelistedAddresses",
        "offset": 0,
        "slot": "0",
        "type": "t_mapping(t_address,t_bool)"
      },
      {
        "astId": 2339,
        "contract": "contracts/Whitelist.sol:Whitelist",
        "label": "numAddressesWhitelisted",
        "offset": 0,
        "slot": "1",
        "type": "t_uint8"
      }
    ],
    "types": {
      "t_address": {
        "encoding": "inplace",
        "label": "address",
        "numberOfBytes": "20"
      },
      "t_bool": {
        "encoding": "inplace",
        "label": "bool",
        "numberOfBytes": "1"
      },
      "t_mapping(t_address,t_bool)": {
        "encoding": "mapping",
        "key": "t_address",
        "label": "mapping(address => bool)",
        "numberOfBytes": "32",
        "value": "t_bool"
      },
      "t_uint8": {
        "encoding": "inplace",
        "label": "uint8",
        "numberOfBytes": "1"
      }
    }
  }
}