{
  "address": "0xe9336F6FED309FB6f79b7718F8f276A135B81bb0",
  "abi": [
    {
      "inputs": [
        {
          "internalType": "uint8",
          "name": "_maxWhitelistedAddresses",
          "type": "uint8"
        }
      ],
      "stateMutability": "nonpayable",
      "type": "constructor"
    },
    {
      "inputs": [],
      "name": "AlreadyWhitelisted",
      "type": "error"
    },
    {
      "inputs": [],
      "name": "MaxAddressesWhitelisted",
      "type": "error"
    },
    {
      "inputs": [],
      "name": "addAddressToWhitelist",
      "outputs": [],
      "stateMutability": "nonpayable",
      "type": "function"
    },
    {
      "inputs": [],
      "name": "numAddressesWhitelisted",
      "outputs": [
        {
          "internalType": "uint8",
          "name": "",
          "type": "uint8"
        }
      ],
      "stateMutability": "view",
      "type": "function"
    },
    {
      "inputs": [
        {
          "internalType": "address",
          "name": "",
          "type": "address"
        }
      ],
      "name": "whitelistedAddresses",
      "outputs": [
        {
          "internalType": "bool",
          "name": "",
          "type": "bool"
        }
      ],
      "stateMutability": "view",
      "type": "function"
    }
  ],
  "transactionHash": "0x98ac7423ee8dd8fac79b99c9a597c29768880031f1e81e4eec59808223eb8535",
  "args": [
    10
  ],
  "numDeployments": 1,
  "solcInputHash": "f1fe1bcd3ba265dd63ebd61acf07a0ca",
  "bytecode": "0x60a060405234801561001057600080fd5b506040516104aa3803806104aa8339818101604052810190610032919061005e565b8060ff1660808160ff1660f81b81525050506100ab565b60008151905061005881610094565b92915050565b60006020828403121561007057600080fd5b600061007e84828501610049565b91505092915050565b600060ff82169050919050565b61009d81610087565b81146100a857600080fd5b50565b60805160f81c6103e16100c9600039600061015601526103e16000f3fe608060405234801561001057600080fd5b50600436106100415760003560e01c806306c933d8146100465780634011d7cd146100765780638e7314d914610094575b600080fd5b610060600480360381019061005b9190610266565b61009e565b60405161006d91906102ad565b60405180910390f35b61007e6100be565b60405161008b91906102c8565b60405180910390f35b61009c6100d1565b005b60006020528060005260406000206000915054906101000a900460ff1681565b600160009054906101000a900460ff1681565b6000803373ffffffffffffffffffffffffffffffffffffffff1673ffffffffffffffffffffffffffffffffffffffff16815260200190815260200160002060009054906101000a900460ff1615610154576040517fb73e95e100000000000000000000000000000000000000000000000000000000815260040160405180910390fd5b7f000000000000000000000000000000000000000000000000000000000000000060ff16600160009054906101000a900460ff1660ff16106101c2576040517fe2e5fcfe00000000000000000000000000000000000000000000000000000000815260040160405180910390fd5b60016000803373ffffffffffffffffffffffffffffffffffffffff1673ffffffffffffffffffffffffffffffffffffffff16815260200190815260200160002060006101000a81548160ff02191690831515021790555060018060008282829054906101000a900460ff1661023791906102e3565b92506101000a81548160ff021916908360ff160217905550565b60008135905061026081610394565b92915050565b60006020828403121561027857600080fd5b600061028684828501610251565b91505092915050565b6102988161032c565b82525050565b6102a781610358565b82525050565b60006020820190506102c2600083018461028f565b92915050565b60006020820190506102dd600083018461029e565b92915050565b60006102ee82610358565b91506102f983610358565b92508260ff0382111561030f5761030e610365565b5b828201905092915050565b600061032582610338565b9050919050565b60008115159050919050565b600073ffffffffffffffffffffffffffffffffffffffff82169050919050565b600060ff82169050919050565b7f4e487b7100000000000000000000000000000000000000000000000000000000600052601160045260246000fd5b61039d8161031a565b81146103a857600080fd5b5056fea2646970667358221220c5acdd8bcc2455db57a384c08ffa75298ba7237d2f68161d7c7c5b6437c4e5db64736f6c63430008040033",
  "devdoc": {
    "kind": "dev",
    "methods": {},
    "version": 1
  },
  "userdoc": {
    "kind": "user",
    "methods": {},
    "version": 1
  },
  "storageLayout": {
    "storage": [
      {
        "astId": 11,
        "contract": "contracts/Whitelist.sol:Whitelist",
        "label": "whitelistedAddresses",
        "offset": 0,
        "slot": "0",
        "type": "t_mapping(t_address,t_bool)"
      },
      {
        "astId": 13,
        "contract": "contracts/Whitelist.sol:Whitelist",
        "label": "numAddressesWhitelisted",
        "offset": 0,
        "slot": "1",
        "type": "t_uint8"
      }
    ],
    "types": {
      "t_address": {
        "encoding": "inplace",
        "label": "address",
        "numberOfBytes": "20"
      },
      "t_bool": {
        "encoding": "inplace",
        "label": "bool",
        "numberOfBytes": "1"
      },
      "t_mapping(t_address,t_bool)": {
        "encoding": "mapping",
        "key": "t_address",
        "label": "mapping(address => bool)",
        "numberOfBytes": "32",
        "value": "t_bool"
      },
      "t_uint8": {
        "encoding": "inplace",
        "label": "uint8",
        "numberOfBytes": "1"
      }
    }
  }
}